{
  "_format": "hh-sol-artifact-1",
  "contractName": "SbfNFT",
  "sourceName": "contracts/SbfNFT.sol",
  "abi": [
    {
      "inputs": [],
      "stateMutability": "nonpayable",
      "type": "constructor"
    },
    {
      "anonymous": false,
      "inputs": [
        {
          "indexed": true,
          "internalType": "address",
          "name": "owner",
          "type": "address"
        },
        {
          "indexed": true,
          "internalType": "address",
          "name": "approved",
          "type": "address"
        },
        {
          "indexed": true,
          "internalType": "uint256",
          "name": "tokenId",
          "type": "uint256"
        }
      ],
      "name": "Approval",
      "type": "event"
    },
    {
      "anonymous": false,
      "inputs": [
        {
          "indexed": true,
          "internalType": "address",
          "name": "owner",
          "type": "address"
        },
        {
          "indexed": true,
          "internalType": "address",
          "name": "operator",
          "type": "address"
        },
        {
          "indexed": false,
          "internalType": "bool",
          "name": "approved",
          "type": "bool"
        }
      ],
      "name": "ApprovalForAll",
      "type": "event"
    },
    {
      "anonymous": false,
      "inputs": [
        {
          "indexed": true,
          "internalType": "address",
          "name": "previousOwner",
          "type": "address"
        },
        {
          "indexed": true,
          "internalType": "address",
          "name": "newOwner",
          "type": "address"
        }
      ],
      "name": "OwnershipTransferred",
      "type": "event"
    },
    {
      "anonymous": false,
      "inputs": [
        {
          "indexed": true,
          "internalType": "address",
          "name": "from",
          "type": "address"
        },
        {
          "indexed": true,
          "internalType": "address",
          "name": "to",
          "type": "address"
        },
        {
          "indexed": true,
          "internalType": "uint256",
          "name": "tokenId",
          "type": "uint256"
        }
      ],
      "name": "Transfer",
      "type": "event"
    },
    {
      "inputs": [
        {
          "internalType": "address",
          "name": "to",
          "type": "address"
        },
        {
          "internalType": "uint256",
          "name": "tokenId",
          "type": "uint256"
        }
      ],
      "name": "approve",
      "outputs": [],
      "stateMutability": "nonpayable",
      "type": "function"
    },
    {
      "inputs": [
        {
          "internalType": "address",
          "name": "owner",
          "type": "address"
        }
      ],
      "name": "balanceOf",
      "outputs": [
        {
          "internalType": "uint256",
          "name": "",
          "type": "uint256"
        }
      ],
      "stateMutability": "view",
      "type": "function"
    },
    {
      "inputs": [
        {
          "internalType": "uint256",
          "name": "tokenId",
          "type": "uint256"
        }
      ],
      "name": "getApproved",
      "outputs": [
        {
          "internalType": "address",
          "name": "",
          "type": "address"
        }
      ],
      "stateMutability": "view",
      "type": "function"
    },
    {
      "inputs": [
        {
          "internalType": "address",
          "name": "owner",
          "type": "address"
        },
        {
          "internalType": "address",
          "name": "operator",
          "type": "address"
        }
      ],
      "name": "isApprovedForAll",
      "outputs": [
        {
          "internalType": "bool",
          "name": "",
          "type": "bool"
        }
      ],
      "stateMutability": "view",
      "type": "function"
    },
    {
      "inputs": [
        {
          "internalType": "address",
          "name": "recipient",
          "type": "address"
        },
        {
          "internalType": "string",
          "name": "tokenURI",
          "type": "string"
        }
      ],
      "name": "mintNFT",
      "outputs": [
        {
          "internalType": "uint256",
          "name": "",
          "type": "uint256"
        }
      ],
      "stateMutability": "nonpayable",
      "type": "function"
    },
    {
      "inputs": [],
      "name": "name",
      "outputs": [
        {
          "internalType": "string",
          "name": "",
          "type": "string"
        }
      ],
      "stateMutability": "view",
      "type": "function"
    },
    {
      "inputs": [],
      "name": "owner",
      "outputs": [
        {
          "internalType": "address",
          "name": "",
          "type": "address"
        }
      ],
      "stateMutability": "view",
      "type": "function"
    },
    {
      "inputs": [
        {
          "internalType": "uint256",
          "name": "tokenId",
          "type": "uint256"
        }
      ],
      "name": "ownerOf",
      "outputs": [
        {
          "internalType": "address",
          "name": "",
          "type": "address"
        }
      ],
      "stateMutability": "view",
      "type": "function"
    },
    {
      "inputs": [],
      "name": "renounceOwnership",
      "outputs": [],
      "stateMutability": "nonpayable",
      "type": "function"
    },
    {
      "inputs": [
        {
          "internalType": "address",
          "name": "from",
          "type": "address"
        },
        {
          "internalType": "address",
          "name": "to",
          "type": "address"
        },
        {
          "internalType": "uint256",
          "name": "tokenId",
          "type": "uint256"
        }
      ],
      "name": "safeTransferFrom",
      "outputs": [],
      "stateMutability": "nonpayable",
      "type": "function"
    },
    {
      "inputs": [
        {
          "internalType": "address",
          "name": "from",
          "type": "address"
        },
        {
          "internalType": "address",
          "name": "to",
          "type": "address"
        },
        {
          "internalType": "uint256",
          "name": "tokenId",
          "type": "uint256"
        },
        {
          "internalType": "bytes",
          "name": "data",
          "type": "bytes"
        }
      ],
      "name": "safeTransferFrom",
      "outputs": [],
      "stateMutability": "nonpayable",
      "type": "function"
    },
    {
      "inputs": [
        {
          "internalType": "address",
          "name": "operator",
          "type": "address"
        },
        {
          "internalType": "bool",
          "name": "approved",
          "type": "bool"
        }
      ],
      "name": "setApprovalForAll",
      "outputs": [],
      "stateMutability": "nonpayable",
      "type": "function"
    },
    {
      "inputs": [
        {
          "internalType": "bytes4",
          "name": "interfaceId",
          "type": "bytes4"
        }
      ],
      "name": "supportsInterface",
      "outputs": [
        {
          "internalType": "bool",
          "name": "",
          "type": "bool"
        }
      ],
      "stateMutability": "view",
      "type": "function"
    },
    {
      "inputs": [],
      "name": "symbol",
      "outputs": [
        {
          "internalType": "string",
          "name": "",
          "type": "string"
        }
      ],
      "stateMutability": "view",
      "type": "function"
    },
    {
      "inputs": [
        {
          "internalType": "uint256",
          "name": "tokenId",
          "type": "uint256"
        }
      ],
      "name": "tokenURI",
      "outputs": [
        {
          "internalType": "string",
          "name": "",
          "type": "string"
        }
      ],
      "stateMutability": "view",
      "type": "function"
    },
    {
      "inputs": [
        {
          "internalType": "address",
          "name": "from",
          "type": "address"
        },
        {
          "internalType": "address",
          "name": "to",
          "type": "address"
        },
        {
          "internalType": "uint256",
          "name": "tokenId",
          "type": "uint256"
        }
      ],
      "name": "transferFrom",
      "outputs": [],
      "stateMutability": "nonpayable",
      "type": "function"
    },
    {
      "inputs": [
        {
          "internalType": "address",
          "name": "newOwner",
          "type": "address"
        }
      ],
      "name": "transferOwnership",
      "outputs": [],
      "stateMutability": "nonpayable",
      "type": "function"
    }
  ],
  "bytecode": "0x60806040523480156200001157600080fd5b506040518060400160405280601281526020017f534246204d656d62657273686970204e465400000000000000000000000000008152506040518060400160405280600381526020017f5342460000000000000000000000000000000000000000000000000000000000815250816000908051906020019062000096929190620001a6565b508060019080519060200190620000af929190620001a6565b505050620000d2620000c6620000d860201b60201c565b620000e060201b60201c565b620002bb565b600033905090565b6000600760009054906101000a900473ffffffffffffffffffffffffffffffffffffffff16905081600760006101000a81548173ffffffffffffffffffffffffffffffffffffffff021916908373ffffffffffffffffffffffffffffffffffffffff1602179055508173ffffffffffffffffffffffffffffffffffffffff168173ffffffffffffffffffffffffffffffffffffffff167f8be0079c531659141344cd1fd0a4f28419497f9722a3daafe3b4186f6b6457e060405160405180910390a35050565b828054620001b49062000285565b90600052602060002090601f016020900481019282620001d8576000855562000224565b82601f10620001f357805160ff191683800117855562000224565b8280016001018555821562000224579182015b828111156200022357825182559160200191906001019062000206565b5b50905062000233919062000237565b5090565b5b808211156200025257600081600090555060010162000238565b5090565b7f4e487b7100000000000000000000000000000000000000000000000000000000600052602260045260246000fd5b600060028204905060018216806200029e57607f821691505b60208210811415620002b557620002b462000256565b5b50919050565b612de980620002cb6000396000f3fe608060405234801561001057600080fd5b506004361061010b5760003560e01c8063715018a6116100a2578063b88d4fde11610071578063b88d4fde146102a4578063c87b56dd146102c0578063e985e9c5146102f0578063eacabe1414610320578063f2fde38b146103505761010b565b8063715018a6146102425780638da5cb5b1461024c57806395d89b411461026a578063a22cb465146102885761010b565b806323b872dd116100de57806323b872dd146101aa57806342842e0e146101c65780636352211e146101e257806370a08231146102125761010b565b806301ffc9a71461011057806306fdde0314610140578063081812fc1461015e578063095ea7b31461018e575b600080fd5b61012a60048036038101906101259190611d95565b61036c565b6040516101379190611ddd565b60405180910390f35b61014861044e565b6040516101559190611e91565b60405180910390f35b61017860048036038101906101739190611ee9565b6104e0565b6040516101859190611f57565b60405180910390f35b6101a860048036038101906101a39190611f9e565b610526565b005b6101c460048036038101906101bf9190611fde565b61063e565b005b6101e060048036038101906101db9190611fde565b61069e565b005b6101fc60048036038101906101f79190611ee9565b6106be565b6040516102099190611f57565b60405180910390f35b61022c60048036038101906102279190612031565b610745565b604051610239919061206d565b60405180910390f35b61024a6107fd565b005b610254610811565b6040516102619190611f57565b60405180910390f35b61027261083b565b60405161027f9190611e91565b60405180910390f35b6102a2600480360381019061029d91906120b4565b6108cd565b005b6102be60048036038101906102b99190612229565b6108e3565b005b6102da60048036038101906102d59190611ee9565b610945565b6040516102e79190611e91565b60405180910390f35b61030a600480360381019061030591906122ac565b610a58565b6040516103179190611ddd565b60405180910390f35b61033a6004803603810190610335919061238d565b610aec565b604051610347919061206d565b60405180910390f35b61036a60048036038101906103659190612031565b610b2c565b005b60007f80ac58cd000000000000000000000000000000000000000000000000000000007bffffffffffffffffffffffffffffffffffffffffffffffffffffffff1916827bffffffffffffffffffffffffffffffffffffffffffffffffffffffff1916148061043757507f5b5e139f000000000000000000000000000000000000000000000000000000007bffffffffffffffffffffffffffffffffffffffffffffffffffffffff1916827bffffffffffffffffffffffffffffffffffffffffffffffffffffffff1916145b80610447575061044682610bb0565b5b9050919050565b60606000805461045d90612418565b80601f016020809104026020016040519081016040528092919081815260200182805461048990612418565b80156104d65780601f106104ab576101008083540402835291602001916104d6565b820191906000526020600020905b8154815290600101906020018083116104b957829003601f168201915b5050505050905090565b60006104eb82610c1a565b6004600083815260200190815260200160002060009054906101000a900473ffffffffffffffffffffffffffffffffffffffff169050919050565b6000610531826106be565b90508073ffffffffffffffffffffffffffffffffffffffff168373ffffffffffffffffffffffffffffffffffffffff1614156105a2576040517f08c379a0000000000000000000000000000000000000000000000000000000008152600401610599906124bc565b60405180910390fd5b8073ffffffffffffffffffffffffffffffffffffffff166105c1610c65565b73ffffffffffffffffffffffffffffffffffffffff1614806105f057506105ef816105ea610c65565b610a58565b5b61062f576040517f08c379a00000000000000000000000000000000000000000000000000000000081526004016106269061254e565b60405180910390fd5b6106398383610c6d565b505050565b61064f610649610c65565b82610d26565b61068e576040517f08c379a0000000000000000000000000000000000000000000000000000000008152600401610685906125e0565b60405180910390fd5b610699838383610dbb565b505050565b6106b9838383604051806020016040528060008152506108e3565b505050565b6000806106ca836110b5565b9050600073ffffffffffffffffffffffffffffffffffffffff168173ffffffffffffffffffffffffffffffffffffffff16141561073c576040517f08c379a00000000000000000000000000000000000000000000000000000000081526004016107339061264c565b60405180910390fd5b80915050919050565b60008073ffffffffffffffffffffffffffffffffffffffff168273ffffffffffffffffffffffffffffffffffffffff1614156107b6576040517f08c379a00000000000000000000000000000000000000000000000000000000081526004016107ad906126de565b60405180910390fd5b600360008373ffffffffffffffffffffffffffffffffffffffff1673ffffffffffffffffffffffffffffffffffffffff168152602001908152602001600020549050919050565b6108056110f2565b61080f6000611170565b565b6000600760009054906101000a900473ffffffffffffffffffffffffffffffffffffffff16905090565b60606001805461084a90612418565b80601f016020809104026020016040519081016040528092919081815260200182805461087690612418565b80156108c35780601f10610898576101008083540402835291602001916108c3565b820191906000526020600020905b8154815290600101906020018083116108a657829003601f168201915b5050505050905090565b6108df6108d8610c65565b8383611236565b5050565b6108f46108ee610c65565b83610d26565b610933576040517f08c379a000000000000000000000000000000000000000000000000000000000815260040161092a906125e0565b60405180910390fd5b61093f848484846113a3565b50505050565b606061095082610c1a565b600060066000848152602001908152602001600020805461097090612418565b80601f016020809104026020016040519081016040528092919081815260200182805461099c90612418565b80156109e95780601f106109be576101008083540402835291602001916109e9565b820191906000526020600020905b8154815290600101906020018083116109cc57829003601f168201915b5050505050905060006109fa6113ff565b9050600081511415610a10578192505050610a53565b600082511115610a45578082604051602001610a2d92919061273a565b60405160208183030381529060405292505050610a53565b610a4e84611416565b925050505b919050565b6000600560008473ffffffffffffffffffffffffffffffffffffffff1673ffffffffffffffffffffffffffffffffffffffff16815260200190815260200160002060008373ffffffffffffffffffffffffffffffffffffffff1673ffffffffffffffffffffffffffffffffffffffff16815260200190815260200160002060009054906101000a900460ff16905092915050565b6000610af66110f2565b610b00600861147e565b6000610b0c6008611494565b9050610b1884826114a2565b610b2281846116c0565b8091505092915050565b610b346110f2565b600073ffffffffffffffffffffffffffffffffffffffff168173ffffffffffffffffffffffffffffffffffffffff161415610ba4576040517f08c379a0000000000000000000000000000000000000000000000000000000008152600401610b9b906127d0565b60405180910390fd5b610bad81611170565b50565b60007f01ffc9a7000000000000000000000000000000000000000000000000000000007bffffffffffffffffffffffffffffffffffffffffffffffffffffffff1916827bffffffffffffffffffffffffffffffffffffffffffffffffffffffff1916149050919050565b610c2381611734565b610c62576040517f08c379a0000000000000000000000000000000000000000000000000000000008152600401610c599061264c565b60405180910390fd5b50565b600033905090565b816004600083815260200190815260200160002060006101000a81548173ffffffffffffffffffffffffffffffffffffffff021916908373ffffffffffffffffffffffffffffffffffffffff160217905550808273ffffffffffffffffffffffffffffffffffffffff16610ce0836106be565b73ffffffffffffffffffffffffffffffffffffffff167f8c5be1e5ebec7d5bd14f71427d1e84f3dd0314c0f7b2291e5b200ac8c7c3b92560405160405180910390a45050565b600080610d32836106be565b90508073ffffffffffffffffffffffffffffffffffffffff168473ffffffffffffffffffffffffffffffffffffffff161480610d745750610d738185610a58565b5b80610db257508373ffffffffffffffffffffffffffffffffffffffff16610d9a846104e0565b73ffffffffffffffffffffffffffffffffffffffff16145b91505092915050565b8273ffffffffffffffffffffffffffffffffffffffff16610ddb826106be565b73ffffffffffffffffffffffffffffffffffffffff1614610e31576040517f08c379a0000000000000000000000000000000000000000000000000000000008152600401610e2890612862565b60405180910390fd5b600073ffffffffffffffffffffffffffffffffffffffff168273ffffffffffffffffffffffffffffffffffffffff161415610ea1576040517f08c379a0000000000000000000000000000000000000000000000000000000008152600401610e98906128f4565b60405180910390fd5b610eae8383836001611775565b8273ffffffffffffffffffffffffffffffffffffffff16610ece826106be565b73ffffffffffffffffffffffffffffffffffffffff1614610f24576040517f08c379a0000000000000000000000000000000000000000000000000000000008152600401610f1b90612862565b60405180910390fd5b6004600082815260200190815260200160002060006101000a81549073ffffffffffffffffffffffffffffffffffffffff02191690556001600360008573ffffffffffffffffffffffffffffffffffffffff1673ffffffffffffffffffffffffffffffffffffffff168152602001908152602001600020600082825403925050819055506001600360008473ffffffffffffffffffffffffffffffffffffffff1673ffffffffffffffffffffffffffffffffffffffff16815260200190815260200160002060008282540192505081905550816002600083815260200190815260200160002060006101000a81548173ffffffffffffffffffffffffffffffffffffffff021916908373ffffffffffffffffffffffffffffffffffffffff160217905550808273ffffffffffffffffffffffffffffffffffffffff168473ffffffffffffffffffffffffffffffffffffffff167fddf252ad1be2c89b69c2b068fc378daa952ba7f163c4a11628f55a4df523b3ef60405160405180910390a46110b0838383600161189b565b505050565b60006002600083815260200190815260200160002060009054906101000a900473ffffffffffffffffffffffffffffffffffffffff169050919050565b6110fa610c65565b73ffffffffffffffffffffffffffffffffffffffff16611118610811565b73ffffffffffffffffffffffffffffffffffffffff161461116e576040517f08c379a000000000000000000000000000000000000000000000000000000000815260040161116590612960565b60405180910390fd5b565b6000600760009054906101000a900473ffffffffffffffffffffffffffffffffffffffff16905081600760006101000a81548173ffffffffffffffffffffffffffffffffffffffff021916908373ffffffffffffffffffffffffffffffffffffffff1602179055508173ffffffffffffffffffffffffffffffffffffffff168173ffffffffffffffffffffffffffffffffffffffff167f8be0079c531659141344cd1fd0a4f28419497f9722a3daafe3b4186f6b6457e060405160405180910390a35050565b8173ffffffffffffffffffffffffffffffffffffffff168373ffffffffffffffffffffffffffffffffffffffff1614156112a5576040517f08c379a000000000000000000000000000000000000000000000000000000000815260040161129c906129cc565b60405180910390fd5b80600560008573ffffffffffffffffffffffffffffffffffffffff1673ffffffffffffffffffffffffffffffffffffffff16815260200190815260200160002060008473ffffffffffffffffffffffffffffffffffffffff1673ffffffffffffffffffffffffffffffffffffffff16815260200190815260200160002060006101000a81548160ff0219169083151502179055508173ffffffffffffffffffffffffffffffffffffffff168373ffffffffffffffffffffffffffffffffffffffff167f17307eab39ab6107e8899845ad3d59bd9653f200f220920489ca2b5937696c31836040516113969190611ddd565b60405180910390a3505050565b6113ae848484610dbb565b6113ba848484846118a1565b6113f9576040517f08c379a00000000000000000000000000000000000000000000000000000000081526004016113f090612a5e565b60405180910390fd5b50505050565b606060405180602001604052806000815250905090565b606061142182610c1a565b600061142b6113ff565b9050600081511161144b5760405180602001604052806000815250611476565b8061145584611a38565b60405160200161146692919061273a565b6040516020818303038152906040525b915050919050565b6001816000016000828254019250508190555050565b600081600001549050919050565b600073ffffffffffffffffffffffffffffffffffffffff168273ffffffffffffffffffffffffffffffffffffffff161415611512576040517f08c379a000000000000000000000000000000000000000000000000000000000815260040161150990612aca565b60405180910390fd5b61151b81611734565b1561155b576040517f08c379a000000000000000000000000000000000000000000000000000000000815260040161155290612b36565b60405180910390fd5b611569600083836001611775565b61157281611734565b156115b2576040517f08c379a00000000000000000000000000000000000000000000000000000000081526004016115a990612b36565b60405180910390fd5b6001600360008473ffffffffffffffffffffffffffffffffffffffff1673ffffffffffffffffffffffffffffffffffffffff16815260200190815260200160002060008282540192505081905550816002600083815260200190815260200160002060006101000a81548173ffffffffffffffffffffffffffffffffffffffff021916908373ffffffffffffffffffffffffffffffffffffffff160217905550808273ffffffffffffffffffffffffffffffffffffffff16600073ffffffffffffffffffffffffffffffffffffffff167fddf252ad1be2c89b69c2b068fc378daa952ba7f163c4a11628f55a4df523b3ef60405160405180910390a46116bc60008383600161189b565b5050565b6116c982611734565b611708576040517f08c379a00000000000000000000000000000000000000000000000000000000081526004016116ff90612bc8565b60405180910390fd5b8060066000848152602001908152602001600020908051906020019061172f929190611c86565b505050565b60008073ffffffffffffffffffffffffffffffffffffffff16611756836110b5565b73ffffffffffffffffffffffffffffffffffffffff1614159050919050565b600181111561189557600073ffffffffffffffffffffffffffffffffffffffff168473ffffffffffffffffffffffffffffffffffffffff16146118095780600360008673ffffffffffffffffffffffffffffffffffffffff1673ffffffffffffffffffffffffffffffffffffffff16815260200190815260200160002060008282546118019190612c17565b925050819055505b600073ffffffffffffffffffffffffffffffffffffffff168373ffffffffffffffffffffffffffffffffffffffff16146118945780600360008573ffffffffffffffffffffffffffffffffffffffff1673ffffffffffffffffffffffffffffffffffffffff168152602001908152602001600020600082825461188c9190612c4b565b925050819055505b5b50505050565b50505050565b60006118c28473ffffffffffffffffffffffffffffffffffffffff16611b10565b15611a2b578373ffffffffffffffffffffffffffffffffffffffff1663150b7a026118eb610c65565b8786866040518563ffffffff1660e01b815260040161190d9493929190612cf6565b602060405180830381600087803b15801561192757600080fd5b505af192505050801561195857506040513d601f19601f820116820180604052508101906119559190612d57565b60015b6119db573d8060008114611988576040519150601f19603f3d011682016040523d82523d6000602084013e61198d565b606091505b506000815114156119d3576040517f08c379a00000000000000000000000000000000000000000000000000000000081526004016119ca90612a5e565b60405180910390fd5b805181602001fd5b63150b7a0260e01b7bffffffffffffffffffffffffffffffffffffffffffffffffffffffff1916817bffffffffffffffffffffffffffffffffffffffffffffffffffffffff191614915050611a30565b600190505b949350505050565b606060006001611a4784611b33565b01905060008167ffffffffffffffff811115611a6657611a656120fe565b5b6040519080825280601f01601f191660200182016040528015611a985781602001600182028036833780820191505090505b509050600082602001820190505b600115611b05578080600190039150507f3031323334353637383961626364656600000000000000000000000000000000600a86061a8153600a8581611aef57611aee612d84565b5b0494506000851415611b0057611b05565b611aa6565b819350505050919050565b6000808273ffffffffffffffffffffffffffffffffffffffff163b119050919050565b600080600090507a184f03e93ff9f4daa797ed6e38ed64bf6a1f0100000000000000008310611b91577a184f03e93ff9f4daa797ed6e38ed64bf6a1f0100000000000000008381611b8757611b86612d84565b5b0492506040810190505b6d04ee2d6d415b85acef81000000008310611bce576d04ee2d6d415b85acef81000000008381611bc457611bc3612d84565b5b0492506020810190505b662386f26fc100008310611bfd57662386f26fc100008381611bf357611bf2612d84565b5b0492506010810190505b6305f5e1008310611c26576305f5e1008381611c1c57611c1b612d84565b5b0492506008810190505b6127108310611c4b576127108381611c4157611c40612d84565b5b0492506004810190505b60648310611c6e5760648381611c6457611c63612d84565b5b0492506002810190505b600a8310611c7d576001810190505b80915050919050565b828054611c9290612418565b90600052602060002090601f016020900481019282611cb45760008555611cfb565b82601f10611ccd57805160ff1916838001178555611cfb565b82800160010185558215611cfb579182015b82811115611cfa578251825591602001919060010190611cdf565b5b509050611d089190611d0c565b5090565b5b80821115611d25576000816000905550600101611d0d565b5090565b6000604051905090565b600080fd5b600080fd5b60007fffffffff0000000000000000000000000000000000000000000000000000000082169050919050565b611d7281611d3d565b8114611d7d57600080fd5b50565b600081359050611d8f81611d69565b92915050565b600060208284031215611dab57611daa611d33565b5b6000611db984828501611d80565b91505092915050565b60008115159050919050565b611dd781611dc2565b82525050565b6000602082019050611df26000830184611dce565b92915050565b600081519050919050565b600082825260208201905092915050565b60005b83811015611e32578082015181840152602081019050611e17565b83811115611e41576000848401525b50505050565b6000601f19601f8301169050919050565b6000611e6382611df8565b611e6d8185611e03565b9350611e7d818560208601611e14565b611e8681611e47565b840191505092915050565b60006020820190508181036000830152611eab8184611e58565b905092915050565b6000819050919050565b611ec681611eb3565b8114611ed157600080fd5b50565b600081359050611ee381611ebd565b92915050565b600060208284031215611eff57611efe611d33565b5b6000611f0d84828501611ed4565b91505092915050565b600073ffffffffffffffffffffffffffffffffffffffff82169050919050565b6000611f4182611f16565b9050919050565b611f5181611f36565b82525050565b6000602082019050611f6c6000830184611f48565b92915050565b611f7b81611f36565b8114611f8657600080fd5b50565b600081359050611f9881611f72565b92915050565b60008060408385031215611fb557611fb4611d33565b5b6000611fc385828601611f89565b9250506020611fd485828601611ed4565b9150509250929050565b600080600060608486031215611ff757611ff6611d33565b5b600061200586828701611f89565b935050602061201686828701611f89565b925050604061202786828701611ed4565b9150509250925092565b60006020828403121561204757612046611d33565b5b600061205584828501611f89565b91505092915050565b61206781611eb3565b82525050565b6000602082019050612082600083018461205e565b92915050565b61209181611dc2565b811461209c57600080fd5b50565b6000813590506120ae81612088565b92915050565b600080604083850312156120cb576120ca611d33565b5b60006120d985828601611f89565b92505060206120ea8582860161209f565b9150509250929050565b600080fd5b600080fd5b7f4e487b7100000000000000000000000000000000000000000000000000000000600052604160045260246000fd5b61213682611e47565b810181811067ffffffffffffffff82111715612155576121546120fe565b5b80604052505050565b6000612168611d29565b9050612174828261212d565b919050565b600067ffffffffffffffff821115612194576121936120fe565b5b61219d82611e47565b9050602081019050919050565b82818337600083830152505050565b60006121cc6121c784612179565b61215e565b9050828152602081018484840111156121e8576121e76120f9565b5b6121f38482856121aa565b509392505050565b600082601f8301126122105761220f6120f4565b5b81356122208482602086016121b9565b91505092915050565b6000806000806080858703121561224357612242611d33565b5b600061225187828801611f89565b945050602061226287828801611f89565b935050604061227387828801611ed4565b925050606085013567ffffffffffffffff81111561229457612293611d38565b5b6122a0878288016121fb565b91505092959194509250565b600080604083850312156122c3576122c2611d33565b5b60006122d185828601611f89565b92505060206122e285828601611f89565b9150509250929050565b600067ffffffffffffffff821115612307576123066120fe565b5b61231082611e47565b9050602081019050919050565b600061233061232b846122ec565b61215e565b90508281526020810184848401111561234c5761234b6120f9565b5b6123578482856121aa565b509392505050565b600082601f830112612374576123736120f4565b5b813561238484826020860161231d565b91505092915050565b600080604083850312156123a4576123a3611d33565b5b60006123b285828601611f89565b925050602083013567ffffffffffffffff8111156123d3576123d2611d38565b5b6123df8582860161235f565b9150509250929050565b7f4e487b7100000000000000000000000000000000000000000000000000000000600052602260045260246000fd5b6000600282049050600182168061243057607f821691505b60208210811415612444576124436123e9565b5b50919050565b7f4552433732313a20617070726f76616c20746f2063757272656e74206f776e6560008201527f7200000000000000000000000000000000000000000000000000000000000000602082015250565b60006124a6602183611e03565b91506124b18261244a565b604082019050919050565b600060208201905081810360008301526124d581612499565b9050919050565b7f4552433732313a20617070726f76652063616c6c6572206973206e6f7420746f60008201527f6b656e206f776e6572206f7220617070726f76656420666f7220616c6c000000602082015250565b6000612538603d83611e03565b9150612543826124dc565b604082019050919050565b600060208201905081810360008301526125678161252b565b9050919050565b7f4552433732313a2063616c6c6572206973206e6f7420746f6b656e206f776e6560008201527f72206f7220617070726f76656400000000000000000000000000000000000000602082015250565b60006125ca602d83611e03565b91506125d58261256e565b604082019050919050565b600060208201905081810360008301526125f9816125bd565b9050919050565b7f4552433732313a20696e76616c696420746f6b656e2049440000000000000000600082015250565b6000612636601883611e03565b915061264182612600565b602082019050919050565b6000602082019050818103600083015261266581612629565b9050919050565b7f4552433732313a2061646472657373207a65726f206973206e6f74206120766160008201527f6c6964206f776e65720000000000000000000000000000000000000000000000602082015250565b60006126c8602983611e03565b91506126d38261266c565b604082019050919050565b600060208201905081810360008301526126f7816126bb565b9050919050565b600081905092915050565b600061271482611df8565b61271e81856126fe565b935061272e818560208601611e14565b80840191505092915050565b60006127468285612709565b91506127528284612709565b91508190509392505050565b7f4f776e61626c653a206e6577206f776e657220697320746865207a65726f206160008201527f6464726573730000000000000000000000000000000000000000000000000000602082015250565b60006127ba602683611e03565b91506127c58261275e565b604082019050919050565b600060208201905081810360008301526127e9816127ad565b9050919050565b7f4552433732313a207472616e736665722066726f6d20696e636f72726563742060008201527f6f776e6572000000000000000000000000000000000000000000000000000000602082015250565b600061284c602583611e03565b9150612857826127f0565b604082019050919050565b6000602082019050818103600083015261287b8161283f565b9050919050565b7f4552433732313a207472616e7366657220746f20746865207a65726f2061646460008201527f7265737300000000000000000000000000000000000000000000000000000000602082015250565b60006128de602483611e03565b91506128e982612882565b604082019050919050565b6000602082019050818103600083015261290d816128d1565b9050919050565b7f4f776e61626c653a2063616c6c6572206973206e6f7420746865206f776e6572600082015250565b600061294a602083611e03565b915061295582612914565b602082019050919050565b600060208201905081810360008301526129798161293d565b9050919050565b7f4552433732313a20617070726f766520746f2063616c6c657200000000000000600082015250565b60006129b6601983611e03565b91506129c182612980565b602082019050919050565b600060208201905081810360008301526129e5816129a9565b9050919050565b7f4552433732313a207472616e7366657220746f206e6f6e20455243373231526560008201527f63656976657220696d706c656d656e7465720000000000000000000000000000602082015250565b6000612a48603283611e03565b9150612a53826129ec565b604082019050919050565b60006020820190508181036000830152612a7781612a3b565b9050919050565b7f4552433732313a206d696e7420746f20746865207a65726f2061646472657373600082015250565b6000612ab4602083611e03565b9150612abf82612a7e565b602082019050919050565b60006020820190508181036000830152612ae381612aa7565b9050919050565b7f4552433732313a20746f6b656e20616c7265616479206d696e74656400000000600082015250565b6000612b20601c83611e03565b9150612b2b82612aea565b602082019050919050565b60006020820190508181036000830152612b4f81612b13565b9050919050565b7f45524337323155524953746f726167653a2055524920736574206f66206e6f6e60008201527f6578697374656e7420746f6b656e000000000000000000000000000000000000602082015250565b6000612bb2602e83611e03565b9150612bbd82612b56565b604082019050919050565b60006020820190508181036000830152612be181612ba5565b9050919050565b7f4e487b7100000000000000000000000000000000000000000000000000000000600052601160045260246000fd5b6000612c2282611eb3565b9150612c2d83611eb3565b925082821015612c4057612c3f612be8565b5b828203905092915050565b6000612c5682611eb3565b9150612c6183611eb3565b9250827fffffffffffffffffffffffffffffffffffffffffffffffffffffffffffffffff03821115612c9657612c95612be8565b5b828201905092915050565b600081519050919050565b600082825260208201905092915050565b6000612cc882612ca1565b612cd28185612cac565b9350612ce2818560208601611e14565b612ceb81611e47565b840191505092915050565b6000608082019050612d0b6000830187611f48565b612d186020830186611f48565b612d25604083018561205e565b8181036060830152612d378184612cbd565b905095945050505050565b600081519050612d5181611d69565b92915050565b600060208284031215612d6d57612d6c611d33565b5b6000612d7b84828501612d42565b91505092915050565b7f4e487b7100000000000000000000000000000000000000000000000000000000600052601260045260246000fdfea264697066735822122042d191c8fe732900c3f99a5dec5524d0260227dfe6654dfb64289b7bf3ef5dad64736f6c63430008090033",
  "linkReferences": {},
  "deployedLinkReferences": {}
}